:020000040800F2
:1000000000040020590300085B0300085B0300089C
:100010005B0300085B0300085B0300085B03000848
:100020005B0300085B0300085B03000839910008CC
:100030005B0300085B0300085B0300085B03000828
:100040005B0300085B0300085B0300085B03000818
:100050005B0300085B0300085B0300085B03000808
:100060005B0300085B0300085B03000859A300085A
:100070006DA3000881A3000895A30008A9A30008A8
:10008000BDA30008D1A300085B0300085B030008C0
:100090005B0300085B0300085B0300085B030008C8
:1000A000E19D0008E59D0008E99D0008ED9D000820
:1000B0001DAB0008C1A700085B0300088DA5000860
:1000C00095A600085B0300085B0300085B030008BB
:1000D0005B0300085B0300085B0300085B03000888
:1000E0005B0300085B0300085B0300085B03000878
:1000F00075A900085B0300085B0300085B030008A8
:100100005B0300085B0300085B0300085B03000857
:100110005B0300085B0300084DA9000861A9000803
:10012000E5A30008F9A300080DA4000821A4000815
:1001300035A400085B0300085B0300085B030008AC
:100140005B0300085B0300085B0300085B03000817
:100150005B0300085B0300085B0300085B03000807
:100160005B0300085B0300085B03000869AB000841
:100170005B0300085B0300085B0300085B030008E7
:100180005B0300085B0300085B0300085B030008D7
:100190005B0300085B0300085B0300085B030008C7
:0801A00019020008F10100083A
:1001B0000348044B834202D0034B03B118477047F6
:1001C000581200205812002000000000054806497F
:1001D0000B1AD90F01EBA301491002D0034B03B155
:1001E00018477047581200205812002000000000E5
:1001F00010B5064C237843B9FFF7DAFF044B13B16F
:100200000448AFF300800123237010BD5812002072
:1002100000000000C0CB000808B5044B1BB1044926
:100220000448AFF30080BDE80840CFE700000000BD
:100230005C120020C0CB000872B6394880F30888F1
:10024000384880F3098838484EF60851CEF200014C
:10025000086040F20000CCF200004EF63471CEF29D
:1002600000010860BFF34F8FBFF36F8F40F20000B3
:10027000C0F2F0004EF68851CEF200010860BFF3E4
:100280004F8FBFF36F8F4FF00000E1EE100A4EF674
:100290003C71CEF200010860062080F31488BFF3A1
:1002A0006F8F08F077FC08F045FA4FF055301F4982
:1002B0001B4A91423CBF41F8040BFAE71C49194A1A
:1002C00091423CBF41F8040BFAE71A491A4A1B4B0A
:1002D0009A423EBF51F8040B42F8040BF8E70020A5
:1002E0001749184A91423CBF41F8040BFAE708F05D
:1002F00055FC08F050FC144C144DAC4203DA54F891
:10030000041B8847F9E704F0ABF8114C114DAC42DF
:1003100003DA54F8041B8847F9E708F03DBC0000F5
:1003200000040020000C0020000000080000002055
:1003300000040020C0CB0008000C00205812002050
:10034000581200209C300020A0010008A4010008E1
:10035000A4010008A80100086EE700F000F8FEE71D
:100360002DE9F04F2DED108AC1F80CD0C3689D46E1
:10037000BDEC108ABDE8F08F002383F31188284676
:10038000A047002008F050FEFEE708F00AFE00DF5C
:10039000FEE7000000000000F8B52DED028B57ECE1
:1003A000106B55EC114B00F0C7F8614BB0EE408A72
:1003B000F0EE608A93F9003001332AD022462B46B2
:1003C0002046294601F084FC18BB32463B463046A5
:1003D000394601F07DFC002844D10022002330463C
:1003E000394601F043FCD8B10022002320462946BB
:1003F00001F03CFC00283DD145EC104B00F0DEFE46
:1004000038B1204629460022002301F039FC00289B
:100410005BD1B0EE480AF0EE680ABDEC028BF8BD85
:10042000B0EE480AF0EE680A00F0C8FE58B30022A9
:10043000002351EC180B01F019FC0028E9D047EC1F
:10044000106B00F0BBFE0028E3D045EC104B00F031
:10045000B5FE0028DDD001F01DFE222303609FEDD4
:100460002C8BD6E7204629460022002301F0FEFB14
:100470000028CED09FED288BB0EE480AF0EE680A37
:10048000BDEC028BF8BD47EC106B00F097FE002826
:10049000CDD045EC104B00F091FE0028C7D053ECB6
:1004A000182B18EE100A194601F012FC18BB01F0C7
:1004B000F1FD22230360002200233046394601F07B
:1004C000DFFB48B99FED168BA3E701F0E3FD212385
:1004D00003609FED158B9CE745EC104B00F080FE10
:1004E00022462B4651EC100B01F0C0FB0028E9D14D
:1004F0009FED0D8B8DE701F0CDFD00220023212122
:1005000001601046194601F073FA41EC180B80E7C0
:100510000000000000000000000000000000F03FAC
:10052000000000000000F07F000000000000F0FF6D
:10053000000C0020000000002DE9F04F51EC110BE1
:1005400021F0004555EA000393B03DD059EC108BE3
:10055000694B29F000449C424E4610EE10AA2CDC58
:100560000F4611EE10CA36D09D4226DC624B9D42EA
:1005700020D0002ECDE9000138DB4FF0000BBCF19C
:10058000000F4ED15C4B9D4200F094805B4B9D422E
:1005900000F0A180B7F1804F00F09E84584B9F423D
:1005A0003FD1002E3DDB49EC108B13B0BDE8F04F7E
:1005B00000F02EBDBCF1000FDBD004F1404404F587
:1005C000801454EA0A030BD14C49002041EC100B73
:1005D00013B0BDE8F08FB8F1000F01D1A542C5DD21
:1005E000484813B0BDE8F04F00F0F2BD464B9D42C5
:1005F00077DCA3F154739D420EDD2B15A3F2FF337C
:10060000142B40F37184C3F134032CFA03F202FA81
:1006100003F3634500F0B7844FF0000BBCF1000F0B
:10062000B4D049EC108B00F0BFFD51EC100BBAF1C7
:10063000000F22D124B1314B26F040429A421CD106
:10064000002F05DA02460B4600202C4901F0D0F9B4
:10065000002EBBDA04F1404404F5801454EA0B0385
:1006600040F0648402460B461046194600F0DEFE58
:1006700002460B4601F0BCF9A8E7F30F03F1FF3A7D
:100680005BEA0A0330D0214B9D4243DD03F1047342
:100690009D4240F3AF831E4B9C4240F33B83002FAF
:1006A00040F33B8312A3D3E900231046194601F01F
:1006B00075F88BE704F1404303F5801353EA0A030E
:1006C00082D0134B9C4240F35383002FC0F225830A
:1006D000DDE900017AE7002FC0F2F6834046494683
:1006E00074E74FF0020B4AE742464B46BCE700BFB7
:1006F0009C7500883CE4377E0000F07F0000F03FEE
:100700000000E03FB4CB0008FFFF3F430000E041A2
:10071000FFFFEF3FD24B3340002B40F0D38300224A
:10072000D04B01F03BF86FF034060C462315CE4A4F
:10073000C4F31304A3F2FF3344F07F559E1994428F
:100740000D9645F4401540F3B083C84B9C4240F3EE
:10075000F6839FEDAD7B8DED087B8DED107B9FEDDE
:10076000AC7B8DED067B01360D96A5F580154FF01F
:100770000008DDE906232946064600F057FEDDE9BC
:100780000623CDE90A013046294600F051FE024613
:100790000B460020B64901F02BF903460C46CDE983
:1007A0000E3402460B46DDE90A0100F0F7FF6B103C
:1007B00043F0005303F500230A462F46014603EB9E
:1007C00008050023CDE902120293DDE90289002425
:1007D000CDE904122B4622464046494600F0DEFF92
:1007E00002460B46DDE90A0100F020FEDDE90623A2
:1007F000CDE90A012046294600F018FE02460B46C4
:100800003046394600F012FE42464B4600F0C6FF25
:1008100002460B46DDE90A0100F008FEDDE90E2381
:1008200000F0BCFFDDE90445CDE9060122462B4678
:100830002046294600F0B2FF77A3D3E900230446FF
:100840000D4600F0ABFF76A3D3E9002300F0F0FDE6
:1008500022462B4600F0A2FF73A3D3E9002300F049
:10086000E7FD22462B4600F099FF71A3D3E9002350
:1008700000F0DEFD22462B4600F090FF6EA3D3E988
:10088000002300F0D5FD22462B4600F087FF6CA325
:10089000D3E9002300F0CCFD224606460F462B4646
:1008A0002046294600F07AFF02460B46304639467C
:1008B00000F074FF424604460D464B46DDE9040154
:1008C00000F0B6FDDDE9062300F068FF22462B4666
:1008D00000F0AEFD424606460F464B4640464946AE
:1008E00000F05CFF0022634BCDE90A0100F0A0FD9F
:1008F00032463B4600F09CFD02980D4604462246D7
:100900002B464046494600F049FF00228046894672
:10091000584B2046294600F089FDDDE90A2300F006
:1009200085FD02460B463046394600F07FFDDDE985
:10093000042300F033FF224606460F462B46DDE92E
:10094000060100F02BFF02460B463046394600F008
:100950006FFD06460F4602460B464046494600F0EC
:1009600067FD029838A3D3E9002304460D4600F042
:1009700015FF4246CDE904014B462046294600F0CA
:1009800055FD02460B463046394600F04FFD30A378
:10099000D3E9002300F002FF2FA3D3E9002306468A
:1009A0000F462046294600F0F9FE02460B46304627
:1009B000394600F03DFDDDE9102300F039FD044625
:1009C0000D980D4600F080FE224606460F462B4647
:1009D000DDE9040100F02CFDDDE9082300F028FD2D
:1009E00032463B4600F024FD029832463B468046A4
:1009F000894600F01BFDDDE9082300F017FDDDE965
:100A0000042339E0AFF30080000000000000000084
:100A1000000000000000F03FEF4E454A287ECA3F2C
:100A200065DBC9934A86CD3F01411DA96074D13F62
:100A30004D268F515555D53FFFAB6FDBB66DDB3F74
:100A4000033333333333E33F000000E009C7EE3FA5
:100A5000FD033ADC09C7EE3FF5015B14E02F3EBE13
:100A60000000F07F000040438E98030079B60B0031
:100A70000000F03F0000084000F0D8FC0B460246A2
:100A80002946204600F0D2FC0BF1FF3353EA0A035B
:100A9000CDE9020140F067819FEDB97B8DED047BCC
:100AA000DDE9002300261046194632461F4600F0B5
:100AB000BDFC42464B4600F071FEDDE90023824654
:100AC0008B46DDE9020100F069FE02460B46504606
:100AD000594600F0ADFC32468B4682463B464046C6
:100AE0004946CDE900AB00F059FE0B460246804670
:100AF00089465046594600F09BFCB94B9942044642
:100B00000D468B4640F30C8101F13F4303F5E003B2
:100B1000034340F0FD819CA3D3E90023DDE90001FC
:100B200000F086FC424606460F464B4620462946C4
:100B300000F07CFC02460B463046394601F0BEF818
:100B4000002840F0E581CBF30A534FF48012A3F262
:100B5000FE3342FA03F35B44C3F30A52A14DA2F2FF
:100B6000FF321541C3F3130423EA05010020C2F14B
:100B7000140A44F48014BBF1000F02460B4644FAF9
:100B80000AFA40464946B8BFCAF1000A00F04EFCD6
:100B9000804689464246DDE900014B4600F048FCAC
:100BA0004FEA0A5B0D46002479A3D3E900232046CF
:100BB000294600F0F3FD424606460F464B462046C6
:100BC000294600F033FC02460B46DDE9000100F047
:100BD0002DFC71A3D3E9002300F0E0FD70A3D3E95D
:100BE0000023804689462046294600F0D7FD02466C
:100BF0000B464046494600F01BFC804689460246AB
:100C00000B463046394600F013FC32463B4604465C
:100C10000D4600F00BFC02460B464046494600F0EC
:100C200005FC2246804689462B462046294600F090
:100C3000B5FD5DA3D3E9002306460F4600F0AEFDE7
:100C40005BA3D3E9002300F0F1FB32463B4600F002
:100C5000A5FD59A3D3E9002300F0EAFB32463B4649
:100C600000F09CFD56A3D3E9002300F0DFFB3246E1
:100C70003B4600F093FD54A3D3E9002300F0D8FBDA
:100C800032463B4600F08AFD02460B462046294686
:100C900000F0CCFB06460F4602460B46204629468E
:100CA00000F07CFD0022CDE900014FF0804330468A
:100CB000394600F0BBFB02460B46DDE9000100F0BF
:100CC00097FE424606460F464B462046294600F010
:100CD00065FD42464B4600F0ABFB02460B463046F4
:100CE000394600F0A3FB22462B4600F09FFB02464C
:100CF0000B4600203C4900F099FB8B44BBF5801F5C
:100D000002460B46C0F237815946DDE9042300F064
:100D100045FD5BE4002FFFF6C5AC0020002155E443
:100D2000DFF8CCC021F00043634540F3EB802F4B4C
:100D30000B4403430AD142464B4600F077FBDDE902
:100D4000002300F0B1FF00283FF4FDAEDDE904010F
:100D50001FA3D3E9002300F021FD1DA3D3E9002345
:100D600000F01CFD32E49FED1C7B8DED047B97E6CB
:100D7000002FD2DADDE90034184604F1004125E401
:100D8000000000000000F0BFFE822B654715973C75
:100D900000000000432EE63FEF39FAFE422EE63F08
:100DA000396CA80C615C20BED0A4BE726937663E67
:100DB000F16BD2C541BDBB3E2CDE25AF6A56113F5B
:100DC00093BDBE166CC1663F3E5555555555C53F42
:100DD00059F3F8C21F6EA501000000000000F03FAB
:100DE000FFFF8F40FFFF0F000000F03F00346F3F18
:100DF000FFCB9040824B9C428CDD824B9C423FF764
:100E00004EAC00227F4B00F011FB69A3D3E9002315
:100E100004460D4600F0C2FC67A3D3E90023064652
:100E20000F462046294600F0B9FC0022804689463C
:100E3000754B2046294600F0B1FC02460B4660A1E6
:100E4000D1E9000100F0F2FA22462B4600F0A6FCA0
:100E500002460B4600206D4900F0E8FA2246CDE933
:100E600002012B462046294600F098FC02460B461C
:100E7000DDE9020100F092FC53A3D3E9002300F066
:100E80008DFC02460B464046494600F0CFFA02462A
:100E90000B4604460D463046394600F0C9FA00209C
:100EA0008046894632463B46E6E59FED497B8DED1F
:100EB000087B8DED107B9FED487B4FF000088DED9A
:100EC000067B56E4002631E442464B4600204D495D
:100ED00000F08EFDFFF77ABB42464B46404649463E
:100EE00000F05CFCFFF772BBBCF1000F36D1C3F120
:100EF000140345FA03F202FA03F3AB424DD0E34682
:100F0000FFF744BB414A93424DDCB346B2464AE642
:100F1000DDE9040132A3D3E9002300F03FFC30A354
:100F2000D3E9002300F03AFCFFF750BBBBF1010FFF
:100F30007FF44CAB01F100431946FFF747BB9FED2F
:100F40002A7B8DED087B9FED2A7B8DED107B9FED3D
:100F50002A7B4FF480288DED067B0AE449EC108B48
:100F600000F022F951EC100BBAF1000F7FF4BCAB8A
:100F7000D346FFF75FBB504643EC102B00F0C0F99F
:100F800051EC100BC1E602F00102C2F1020BBCF100
:100F9000000F3FF4FBAAFFF744BB02F00102C2F1CD
:100FA000020BFFF7F3BA1B15CFE500BFAFF30080CC
:100FB000000000604715F73F44DF5DF80BAE543E7C
:100FC000555555555555D53FFE822B654715F73F6D
:100FD0000000000000000000000000000000F03FE2
:100FE0009C7500883CE4377E0000004003B8E23F77
:100FF00006D0CF43EBFD4C3E000000000000F83F60
:10100000FEFFEF3F0000F03F0000D03F0000E03F58
:101010002DE9F041634955EC104BA94300F09F8046
:10102000002D2B4610EE102A52DD5FEA255E00F0FF
:10103000B180C3F31303AEF2FF3E43F48013D10F2C
:101040001EF0010F01EB43034FEA420403D0E40F0B
:1010500004EB430394004FF0000C4FEA6E0E66461B
:1010600016254FF40012B118994202DC5B1A8E1853
:1010700094445B00013D03EBD4734FEA52024FEA04
:101080004404F0D12F4620204FF0004209E041D027
:10109000E10F01384FEA520201EB43034FEA4404E7
:1010A00041D0B34202EB0501F1DD002901EB02055D
:1010B00009DBB0469B1BA14288BF03F1FF33641AD2
:1010C00017444646E4E7002DF3DB06F10108F1E79B
:1010D00025F00041214339D0002D50D1D40A153BD1
:1010E00052052146002CF9D0E50256D4002000E03C
:1010F00028464900CC0200F10105F9D50C461146FD
:10110000AA40C5F1200521FA05F5A3EB000E45EA3A
:1011100004038EE7A142BBD8002901EB0205D2DB14
:1011200098460023CBE7234312D178084FEA6C019D
:1011300001F17F511CF0010F01F5001118BF40F0C3
:10114000004001EB0E53024643EC102BBDE8F0814A
:101150007B1C16BF781C0CF1010C4008E6E710EE72
:10116000102A2B4610EE100A294600F017FB2246E3
:101170002B4600F05DF941EC100BBDE8F0812046F4
:10118000294600F053F902460B4600F031FC41ECD1
:10119000100BDBE729467346A8E7114620254FF0E0
:1011A000FF30B0E70000F07F51EC100B10EE102A7A
:1011B00021F0004343EC102B704700BF10EE903A33
:1011C00043F0004000F58010C00F704700000000A1
:1011D0009FED010B704700BF000000000000F87F8A
:1011E000F0B553EC102BC3F30A56A6F2FF301328C8
:1011F00083B019464FEAD37410EE105A37DC00283A
:101200002DDB3D4E064103EA060717432BD0760837
:1012100033401D430CD04FF48023132821EA0606E7
:1012200043FA00F141EA06010CBF4FF000450025EA
:10123000324800EBC4042A46D4E900450B46204658
:10124000294600F0F5F8CDE9000122462B46DDE9FC
:10125000000100F0EBF841EC100B03B0F0BD23F0FF
:101260000040104322D143EC102B03B0F0BD3328D3
:1012700009DDB0F5806FF6D110EE100A00F0D8F855
:1012800041EC100BF1E7A6F213464FF0FF30F040AF
:101290000242E8D040080242CAD04FF0804325EA1B
:1012A000000043FA06F640EA0605C1E7C3F313005F
:1012B000104345420543114800EBC400D0E90067E4
:1012C000590C2D0B490405F4002545EA010330466D
:1012D000394600F0ADF8CDE900013B463246DDE984
:1012E000000100F0A3F821F0004343EAC47141EC8F
:1012F000100B03B0F0BD00BFFFFF0F0018B20008D5
:1013000038B553EC102BC3F30A511C46054681BB7C
:1013100010EE101A23F00044214329D01946002270
:101320003D4B3E4C10EE100A00F038FAA542024642
:101330000B4616DB0C46C1F30A513639294440F2FC
:10134000FE70814221DC002947DC11F1350F34DACF
:101350004CF250318D4218DC002B27A1D1E900015D
:1013600044DB25A3D3E9002300F018FA41EC100B6D
:1013700038BD40F2FF708142E0D110EE100A1946EC
:1013800000F056F841EC100B38BD002B1CA1D1E940
:10139000000107DB1AA3D3E9002300F0FFF941ECB9
:1013A000100B38BD18A1D1E9000115A3D3E9002322
:1013B00000F0F4F941EC100BF3E724F0FF4424F4BF
:1013C000E004363144EA0153104619460022144B1A
:1013D00000F0E4F941EC100B38BD24F0FF4424F494
:1013E000E00444EA015343EC102B38BD08A1D1E9D5
:1013F0000001B6E7AFF3008059F3F8C21F6EA501F4
:101400009C7500883CE4377E9C7500883CE437FE80
:1014100059F3F8C21F6EA58100005043B03CFFFF96
:101420000000903C81F0004102E000BF83F00043E7
:1014300030B54FEA41044FEA430594EA050F08BF6F
:1014400090EA020F1FBF54EA000C55EA020C7FEA33
:10145000645C7FEA655C00F0E2804FEA5454D4EBB0
:101460005555B8BF6D420CDD2C4480EA020281EA7A
:10147000030382EA000083EA010180EA020281EAB2
:101480000303362D88BF30BD11F0004F4FEA013104
:101490004FF4801C4CEA113102D0404261EB410113
:1014A00013F0004F4FEA03334CEA133302D0524299
:1014B00063EB430394EA050F00F0A780A4F1010455
:1014C000D5F1200E0DDB02FA0EFC22FA05F280188F
:1014D00041F1000103FA0EF2801843FA05F3594175
:1014E0000EE0A5F120050EF1200E012A03FA0EFCF4
:1014F00028BF4CF0020C43FA05F3C01851EBE3711E
:1015000001F0004507D54FF0000EDCF1000C7EEB3A
:1015100000006EEB0101B1F5801F1BD3B1F5001F78
:101520000CD349085FEA30004FEA3C0C04F1010497
:101530004FEA445212F5800F80F09A80BCF1004FC0
:1015400008BF5FEA500C50F1000041EB045141EA42
:10155000050130BD5FEA4C0C404141EB0101013C0B
:1015600028BFB1F5801FE9D291F0000F04BF0146FA
:101570000020B1FA81F308BF2033A3F10B03B3F1CC
:1015800020020CDA0C3208DD02F1140CC2F10C025C
:1015900001FA0CF021FA02F10CE002F11402D8BFBA
:1015A000C2F1200C01FA02F120FA0CFCDCBF41EA86
:1015B0000C019040E41AA2BF01EB0451294330BD55
:1015C0006FEA04041F3C1CDA0C340EDC04F1140432
:1015D000C4F1200220FA04F001FA02F340EA030009
:1015E00021FA04F345EA030130BDC4F10C04C4F14F
:1015F000200220FA02F001FA04F340EA030029462F
:1016000030BD21FA04F0294630BD94F0000F83F478
:10161000801306BF81F480110134013D4EE77FEA5B
:10162000645C18BF7FEA655C29D094EA050F08BFA7
:1016300090EA020F05D054EA000C04BF1946104688
:1016400030BD91EA030F1EBF0021002030BD5FEACC
:10165000545C05D14000494128BF41F0004130BDF4
:1016600014F580043CBF01F5801130BD01F0004548
:1016700045F0FE4141F470014FF0000030BD7FEABB
:10168000645C1ABF194610467FEA655C1CBF0B46B6
:10169000024650EA013406BF52EA033591EA030FCD
:1016A00041F4002130BD00BF90F0000F04BF0021C5
:1016B000704730B54FF4806404F132044FF00005F8
:1016C0004FF0000150E700BF90F0000F04BF002171
:1016D000704730B54FF4806404F1320410F00045D7
:1016E00048BF40424FF000013EE700BF42004FEAD2
:1016F000E2014FEA31014FEA02701FBF12F07F434F
:1017000093F07F4F81F06051704732F07F4208BF05
:10171000704793F07F4F04BF41F40021704730B50C
:101720004FF4607401F0004521F000411CE700BF58
:1017300050EA010208BF704730B54FF000050AE0DB
:1017400050EA010208BF704730B511F0004502D5DC
:10175000404261EB41014FF4806404F132045FEADE
:10176000915C3FF4D8AE4FF003025FEADC0C18BF87
:1017700003325FEADC0C18BF033202EBDC02C2F179
:10178000200300FA03FC20FA02F001FA03FE40EA0B
:101790000E0021FA02F11444BDE600BF70B54FF00F
:1017A000FF0C4CF4E06C1CEA11541DBF1CEA1355ED
:1017B00094EA0C0F95EA0C0F00F0DEF82C4481EA55
:1017C000030621EA4C5123EA4C5350EA013518BF75
:1017D00052EA033541F4801143F4801338D0A0FB62
:1017E00002CE4FF00005E1FB02E506F00042E0FB0F
:1017F00003E54FF00006E1FB03569CF0000F18BF15
:101800004EF0010EA4F1FF04B6F5007F64F54074BC
:1018100004D25FEA4E0E6D4146EB060642EAC6214F
:1018200041EA55514FEAC52040EA5E504FEACE2EBC
:10183000B4F1FD0C88BFBCF5E06F1ED8BEF1004FBF
:1018400008BF5FEA500E50F1000041EB045170BD3B
:1018500006F0004646EA010140EA020081EA03017F
:10186000B4EB5C04C2BFD4EB0C0541EA045170BD7B
:1018700041F480114FF0000E013C00F3AB8014F1F5
:10188000360FDEBF002001F0004170BDC4F100043E
:10189000203C35DA0C341BDC04F11404C4F12005BF
:1018A00000FA05F320FA04F001FA05F240EA02001A
:1018B00001F0004221F0004110EBD37021FA04F650
:1018C00042EB06015EEA430E08BF20EAD37070BD0A
:1018D000C4F10C04C4F1200500FA04F320FA05F069
:1018E00001FA04F240EA020001F0004110EBD3706B
:1018F00041F100015EEA430E08BF20EAD37070BDDB
:10190000C4F1200500FA05F24EEA020E20FA04F3B3
:1019100001FA05F243EA020321FA04F001F0004162
:1019200021FA04F220EA020000EBD3705EEA430ED3
:1019300008BF20EAD37070BD94F0000F0FD101F002
:101940000046400041EB010111F4801F08BF013C3B
:10195000F7D041EA060195F0000F18BF704703F079
:101960000046520043EB030313F4801F08BF013D00
:10197000F7D043EA0603704794EA0C0F0CEA1355BC
:1019800018BF95EA0C0F0CD050EA410618BF52EA76
:101990004306D1D181EA030101F000414FF000007C
:1019A00070BD50EA410606BF1046194652EA43068A
:1019B00019D094EA0C0F02D150EA013613D195EAFE
:1019C0000C0F05D152EA03361CBF104619460AD146
:1019D00081EA030101F0004141F0FE4141F4700150
:1019E0004FF0000070BD41F0FE4141F4780170BD40
:1019F00070B54FF0FF0C4CF4E06C1CEA11541DBFA5
:101A00001CEA135594EA0C0F95EA0C0F00F0A7F8A6
:101A1000A4EB050481EA030E52EA03354FEA0131D3
:101A200000F088804FEA03334FF0805545EA1313E6
:101A300043EA12634FEA022245EA111545EA1065AE
:101A40004FEA00260EF000419D4208BF964244F145
:101A5000FD0404F5407402D25B084FEA3202B61A64
:101A600065EB03055B084FEA32024FF480104FF438
:101A7000002CB6EB020E75EB030E22BFB61A7546AC
:101A800040EA0C005B084FEA3202B6EB020E75EB3F
:101A9000030E22BFB61A754640EA5C005B084FEAA7
:101AA0003202B6EB020E75EB030E22BFB61A754674
:101AB00040EA9C005B084FEA3202B6EB020E75EB7F
:101AC000030E22BFB61A754640EADC0055EA060E40
:101AD00018D04FEA051545EA16754FEA06164FEA83
:101AE000C30343EA52734FEAC2025FEA1C1CC0D12F
:101AF00011F4801F0BD141EA00014FF000004FF0BC
:101B0000004CB6E711F4801F04BF01430020B4F17C
:101B1000FD0C88BFBCF5E06F3FF6AFAEB5EB030C34
:101B200004BFB6EB020C5FEA500C50F1000041EB31
:101B3000045170BD0EF0004E4EEA113114EB5C04FE
:101B4000C2BFD4EB0C0541EA045170BD41F48011D1
:101B50004FF0000E013C90E645EA060E8DE60CEAD9
:101B6000135594EA0C0F08BF95EA0C0F3FF43BAFF6
:101B700094EA0C0F0AD150EA01347FF434AF95EAAD
:101B80000C0F7FF425AF104619462CE795EA0C0F91
:101B900006D152EA03353FF4FDAE1046194622E75E
:101BA00050EA410618BF52EA43067FF4C5AE50EA38
:101BB00041047FF40DAF52EA43057FF4EBAE12E728
:101BC0004FF0FF3C06E000BF4FF0010C02E000BF09
:101BD0004FF0010C4DF804CD4FEA410C7FEA6C5CEC
:101BE0004FEA430C18BF7FEA6C5C1BD001B050EA8F
:101BF000410C0CBF52EA430C91EA030F02BF90EA7A
:101C0000020F0020704710F1000F91EA030F58BF38
:101C1000994208BF90422CBFD8176FEAE37040F09A
:101C2000010070474FEA410C7FEA6C5C02D150EA38
:101C3000013C07D14FEA430C7FEA6C5CD6D152EAF3
:101C4000033CD3D05DF8040B704700BF84461046B8
:101C500062468C461946634600E000BF01B5FFF7B7
:101C6000B7FF002848BF10F1000F01BD4DF808ED87
:101C7000FFF7F4FF0CBF012000205DF808FB00BF58
:101C80004DF808EDFFF7EAFF34BF012000205DF8B2
:101C900008FB00BF4DF808EDFFF7E0FF94BF0120FF
:101CA00000205DF808FB00BF4DF808EDFFF7CEFF00
:101CB00094BF012000205DF808FB00BF4DF808ED3F
:101CC000FFF7C4FF34BF012000205DF808FB00BF10
:101CD0004FEA410C7FEA6C5C02D150EA013C0AD128
:101CE0004FEA430C7FEA6C5C02D152EA033C02D11A
:101CF0004FF0000070474FF0010070474FEA41027B
:101D0000B2F1E04324BFB3F5001CDCF1FE5C0DD959
:101D100001F0004C4FEAC0024CEA5070B2F1004FA3
:101D200040EB830008BF20F00100704711F0804FA6
:101D300021D113F13872BCBF01F00040704741F46B
:101D400080114FEA5252C2F11802C2F1200C10FA6F
:101D50000CF320FA02F018BF40F001004FEAC12353
:101D60004FEAD32303FA0CFC40EA0C0023FA02F3F7
:101D70004FEA4303CCE77FEA625307D150EA0133CD
:101D80001EBF4FF0FE4040F44000704701F000409D
:101D900040F0FE4040F40000704700BF53B94AB91C
:101DA000002908BF00281CBF4FF0FF314FF0FF3063
:101DB00000F06EB9ADF1080C6DE904CE00F006F844
:101DC000DDF804E0DDE9022304B070472DE9F047B7
:101DD000089D04468C46002B40F083808A421746BB
:101DE00047D9B2FA82F242B1C2F1200024FA00F0DF
:101DF0009140974040EA010C94404FEA1748230C69
:101E0000BCFBF8F61FFA87FE08FB16C143EA014344
:101E100006FB0EF1994209D9FB1806F1FF3080F05C
:101E20001981994240F21681023E3B445B1AA4B2EA
:101E3000B3FBF8F008FB103344EA034400FB0EFE4A
:101E4000A64509D93C1900F1FF3380F00581A6456C
:101E500040F2028102383C4440EA0640A4EB0E0402
:101E600000261DB1D4400023C5E900433146BDE83A
:101E7000F08702B9FFDEB2FA82F2002A50D1CB1B02
:101E80004FEA174E1FFA87F80126B3FBFEFC210C20
:101E90000EFB1C3341EA034108FB0CF38B4207D9CC
:101EA00079180CF1FF3002D28B4200F2E9808446AF
:101EB000C91AA3B2B1FBFEF00EFB101143EA0144B4
:101EC00008FB00F8A04507D93C1900F1FF3302D206
:101ED000A04500F2D9801846A4EB080440EA0C4063
:101EE000BFE78B4209D9002D00F0B1800026C5E97B
:101EF000000130463146BDE8F087B3FA83F6002E84
:101F00004AD18B4202D3824200F2B880841A61EB3C
:101F1000030101208C46002DA8D0C5E9004CA5E79F
:101F2000C2F1200320FA03F6974001FA02F04FEACB
:101F3000174ED9403043030CB1FBFEF61FFA87F869
:101F40000EFB161143EA014306FB08F1994204FA1D
:101F500002F409D9FB1806F1FF3C80F08D8099420C
:101F600040F28A80023E3B445B1A81B2B3FBFEF032
:101F70000EFB103341EA034100FB08F38B4207D903
:101F8000791800F1FF3C73D28B4271D90238394481
:101F9000CB1A40EA064678E7C6F1200C03FA06F4AD
:101FA00022FA0CF31C4320FA0CF701FA06F34FEA6D
:101FB000144E21FA0CF11F433B0CB1FBFEF91FFA42
:101FC00084F80EFB191143EA014109FB08FA8A451E
:101FD00002FA06F200FA06F308D9611809F1FF3097
:101FE00048D28A4546D9A9F102092144A1EB0A0148
:101FF000BFB2B1FBFEF00EFB101147EA014700FB38
:1020000008F8B84507D9E71900F1FF312ED2B845D5
:102010002CD90238274440EA0940A7EB0807A0FB67
:1020200002894F45C64649461AD317D05DB1B3EB76
:102030000E0267EB010707FA0CFCF2404CEA0202C1
:10204000F740C5E9002700263146BDE8F0872E4657
:1020500028460BE70646E9E61846FDE64345E5D285
:10206000B8EB020E69EB04010138DFE70846D2E75E
:1020700060468DE78146B9E7664675E730464AE730
:10208000ACF1020C394413E702383C4424E700BFAA
:10209000704700BF014B1868704700BF040C002058
:1020A00001F0FF01102A2BDB10F0070F08D010F809
:1020B000013B013A8B422DD010F0070F42B3F6D10D
:1020C000F0B441EA012141EA014122F007047FF026
:1020D00000070023F0E80256083C85EA010586EA7D
:1020E000010685FA47F5A3FA87F586FA47F6A5FAB9
:1020F00087F68EB9EED1F0BC01F0FF0102F00702C5
:1021000032B110F8013B013A83EA010313B1F8D16F
:102110000020704701387047002D06BF3546033850
:10212000073815F0010F07D1013015F4807F02BF89
:10213000013015F4C03F0130F0BC0138704700BFDA
:10214000844641EA000313F003036DD1403A41D3C2
:1021500051F8043B40F8043B51F8043B40F8043B81
:1021600051F8043B40F8043B51F8043B40F8043B71
:1021700051F8043B40F8043B51F8043B40F8043B61
:1021800051F8043B40F8043B51F8043B40F8043B51
:1021900051F8043B40F8043B51F8043B40F8043B41
:1021A00051F8043B40F8043B51F8043B40F8043B31
:1021B00051F8043B40F8043B51F8043B40F8043B21
:1021C00051F8043B40F8043B51F8043B40F8043B11
:1021D000403ABDD2303211D351F8043B40F8043BB1
:1021E00051F8043B40F8043B51F8043B40F8043BF1
:1021F00051F8043B40F8043B103AEDD20C3205D3C1
:1022000051F8043B40F8043B043AF9D2043208D0B8
:10221000D2071CBF11F8013B00F8013B01D30B882A
:1022200003806046704700BF082A13D38B078DD008
:1022300010F003038AD0C3F10403D21ADB071CBFDA
:1022400011F8013B00F8013B80D331F8023B20F844
:10225000023B7BE7043AD9D3013A11F8013B00F87D
:10226000013BF9D20B7803704B7843708B78837005
:1022700060467047F0B4860746D0541E002A3CD012
:10228000CAB2034602E014F1FF3436D303F8012B3F
:102290009D07F8D1032C29D9CDB245EA05250F2C8D
:1022A00045EA054533D9A4F11006360903F12007A4
:1022B00007EB061703F1100242E9045542E9025503
:1022C0001032BA42F8D1721C14F00C0F03EB021258
:1022D00004F00F0613D0331F23F003030433134419
:1022E00042F8045B9342FBD106F003042CB1C9B25F
:1022F0001C4403F8011B9C42FBD1F0BC70473446E0
:102300001346002CF3D1F8E714460346C2E71A46F9
:102310002646E0E7704708B5FFF7FCFF08BD08B5A3
:1023200000F0BAFA08BD000008B53A4B1B78DB078D
:1023300002D5394802F0C6FB384801224FF400614B
:1023400008F083F8354801224FF4806108F07DF8E9
:1023500032480122042108F078F830480122022195
:1023600008F073F8012280214FF0904008F06DF8DA
:1023700001221146294808F068F840224FF4806194
:102380004FF0904008F061F840224FF400714FF098
:10239000904008F05AF840224FF480714FF090407E
:1023A00008F053F81D4840224FF4004108F04DF862
:1023B0001B4840224FF4005108F047F818484022CB
:1023C0004FF4804108F041F8154840224FF4004195
:1023D00008F03BF8402204214FF0904008F035F817
:1023E000402208214FF0904008F02FF8402211467B
:1023F0004FF0904008F029F80A4A00231360536018
:102400001381094A136053609360BDE8084000F0EF
:102410000BBB00BF5713002088B20008000400481F
:102420000008004878120020821200202DE9F04FA9
:10243000634F644C87B0B84600264FF0010A25462A
:1024400006F1FF39B9F1040F04D8DFE809F05D6047
:10245000626469004FF400632383012006F0E9FD04
:102460004FF090435848D3F810E0D3F810B01969F2
:10247000226901920269029202690392026904923E
:102480001A6905924FEA1B2B019AD3F810C01869FC
:1024900089090BF0020B01F00401CEF3802E120B20
:1024A0004BEA010141EA0E0102F0080E029A41EAEC
:1024B0000E014FEA522E039A0EF0100E41EA0E0E54
:1024C000510A049A01F020014EEA010E510A059AC0
:1024D00001F040014EEA010E510101F080014FEA86
:1024E0004C1C4EEA010E0CF4807CC0004EEA0C0C31
:1024F00000F400704CEA0000B9F1040F13D8DFE8D3
:1025000009F0515456585B004FF48063A4E704234C
:10251000A2E70223A0E74FF0904380221A839CE7B2
:10252000A4F818A099E74FF400636B83B8F8003063
:10253000834208D0254BA8F8000083F800A005F0DE
:1025400087FD234B18800136062E08F102087FF420
:1025500077AF1E4C2378FBB11D4B188805F07DFD2D
:10256000052819D900211B4D8C46002205F801CB06
:102570003E46104636F8023B0B4103F00103834010
:1025800001301A430628D2B2F4D101310A2905F8E4
:10259000012CEAD10023237000F051FA012007B08A
:1025A000BDE8F08F4FF48063BFE70423BDE702234B
:1025B000BBE780225A83B9E7A5F81AA0B6E700BFA7
:1025C0008212002000040048000800487412002015
:1025D0007612002078120020014B185C704700BF73
:1025E000781200202DE9F84F1A4C2378D80702D52D
:1025F000194802F067FA194FDFF868A0DFF8688021
:10260000DFF8689000252378D90703D5294650467E
:1026100002F058FA17F801BB002623784BFA06F2AD
:10262000D20703F0010311D513B1484602F04AFA6C
:102630000136062EF1D12378DB0702D5084802F0D7
:1026400041FA01350A2DDED1BDE8F88F002BEFD01D
:102650004046EBE75713002095B20008781200209F
:10266000F3C20008A4B20008ACB20008AAB2000885
:10267000082823D8DFE800F02D05070A0F14191EDB
:10268000200001207047144B18787047134B1878BE
:1026900000F001007047114B1878C0F340007047FC
:1026A0000E4B1878C0F3800070470C4B1878C0F3BD
:1026B000C00070470A4BEAE7094BEDE701230938F0
:1026C00003FA00F0074B1B68184214BF01200020DA
:1026D00070470020704700BF8E1200209812002023
:1026E0008F12002094120020F8B52A4E3578002D64
:1026F00033D1294C2078FFF7BBFF01466078FFF704
:10270000B7FF0246A078FFF7B3FF0746E078234CF7
:10271000FFF7AEFF214401EB420202EB870313F8FF
:1027200030101F4803782BB91E4C2278013202F07A
:102730000302227001330322B3FBF2F202EB4202E6
:102740009B1A194A03701378013303F00F031370B7
:10275000164B1A6801EB42011960154901350878DA
:1027600005F001053570FFF783FF02464878FFF753
:102770007FFF04468878FFF77BFF830003EB44006C
:102780000244C878D2B2FFF773FF02EBC000C0B2B8
:10279000F8BD00BF8E1200206C0C0020700C0020D1
:1027A000901200208F120020981200209412002016
:1027B000680C002045F66453984210B50FD045F6DA
:1027C0006553984216D045F6635398421DD18C78D4
:1027D0001CB1002000F0F4F80024204610BD8C78D5
:1027E000012054B100F0C8FD02220321012000F0B5
:1027F0000DF9F1E78C780320F3E700F0C7FD022222
:102800000321012000F002F9E7E70124E5E70000D9
:10281000134B1B7810B50C46A3B1032000F098FDB4
:1028200040B1104A13781CB101331370012010BD60
:10283000013BFAE70C4A138814B101331380F5E722
:10284000013BFBE731B14E2000F0D8F94E2000F0FB
:1028500059FAEBE74B2000F0D1F94B20F7E700BF26
:102860009C120020800C0020820C002008B518B1BA
:10287000012809D0012008BD022011B100F07CFD23
:10288000F8E700F083FDF5E7024B002918BF014689
:102890001970EFE79C12002070B5214A214C167880
:1028A00023888AB02546002E33D03BBB1E4B01AA9D
:1028B00003F1200618685968144603C40833B3426C
:1028C0002246F7D119889B78A3702180FFF70CFF6F
:1028D0000AAB1844154B10F8244C1B78144E1C44BA
:1028E0003078E4B2A04209D002F0DEFB02F060FDD5
:1028F000204602F0D9FB02F03BFE34700D4A2B88D3
:1029000011880133B3FBF1F201FB12332B800AB0C3
:1029100070BD002BFBD002F041FC2680F7E700BF22
:102920009C1200209A120020D0B10008800C0020D8
:1029300099120020820C00200120704708B5FFF793
:1029400039FF08BD704708B5FFF7FCFF08BD000060
:1029500013B502AB03E903000F4B1B78B3B99DF825
:102960000230009873B16AB100F084FD044601465C
:10297000009800F03BFD0099204602B0BDE81040F1
:1029800001F05EBB00F056FD0446F4E7009800F04D
:1029900071FD0099F1E700BF9D12002003460A4631
:1029A00000689988FFF7D4BF0120704710B5002157
:1029B0000446FFF7F3FF2146FFF7C5FF10BD0000F7
:1029C00010B504460848002200EBC410102102F0A4
:1029D0004FFC012303FA04F4E0B201F0AFF9204602
:1029E000BDE8104000F083BC840C002010B5012429
:1029F00004FA02F204FA01F1114304FA03F331EA92
:102A000000020CBF1843984310BD000008B51346E0
:102A10000A46014603480068FFF7E8FFBDE80840A2
:102A200000F086BCA412002008B501F0F9FC00F00B
:102A3000B2F802F08FFCBDE80840FFF76CBC08B5A7
:102A400003F04EF8002004F0CDFEBDE80840FFF78B
:102A500066BC704710B500F0F6FB03F005F805F012
:102A6000F7FA002204460321094802F001FCFFF7AF
:102A7000F0FF204605F0F1FAF92805D902F08EFBA7
:102A8000BDE8104005F0F0BA0A2006F0D2FAF0E7EF
:102A9000040E002038B501210546FFF77FFF2946C7
:102AA0000446FFF74BFF08B9002038BD29462046F1
:102AB00002F020FB0028F7D02946204603F072F8E8
:102AC0000028F1D02946204604F03CFF0028EBD036
:102AD0002946204604F090FF0028E5D029462046EC
:102AE00005F09AF80028DFD02946204604F0FCFCC7
:102AF0000028D9D0AB787BB145F65B539C4232D0ED
:102B00000ED845F601439C4218D045F6DF439C425F
:102B100026D0B4F5B84F0ED02846FFF70DFFC4E716
:102B200045F65C539C4221D045F65D539C42F3D15F
:102B300000F0F8FFF0E7FFF78DFFB5E70D4A1078DA
:102B4000C0F3000383F0010363F3000010F00104FD
:102B5000107003D0084801F0B5FFA5E70748FAE771
:102B600001F06AF9A0E700F0E9FFD5E700F0E9FF1E
:102B7000D2E700BF57130020CAB40008DBB4000836
:102B8000704708B5FFF7FCFF08BD0120704708B586
:102B9000FFF7FBFF08BD704710B50446FFF7F1FFD4
:102BA0002046FFF7F4FF10BD10B586B06C4684E8F0
:102BB00003009DF802300BB100F0F2FF0023ADF8E6
:102BC000163094E80300ADF8141089B20490ADF803
:102BD0000C0004AC41B182B24FF6FF739A4203D0AD
:102BE0002046FFF7E1FE18B194E8030000F0DCFE98
:102BF00006B010BD008800F05DBC000010B50446B2
:102C000000287AD0822813D105F032F8810774D4D5
:102C1000392000F037FF01F009F84FF47A7006F020
:102C200008FA392000F036FFBDE8104000F0FEBF82
:102C300083280ED105F01CF8C2075ED4532000F0A3
:102C400021FF00F0F3FF4FF47A7006F0F2F9532001
:102C5000E8E784280ED105F00BF843074DD4472050
:102C600000F010FF00F0E2FF4FF47A7006F0E1F997
:102C70004720D7E7031FDBB2A02B12D802F0BAF926
:102C800000283AD11D4B2146186805F083F820B181
:102C9000204600F0FFFE00F0C9FF204600F0F2FEE3
:102CA000C2E700F12003DBB2072B07D800F00704CE
:102CB0000120A040C0B200F04DFFB5E700F15B037A
:102CC000DBB2022B05D82438BDE8104080B205F0F5
:102CD00023B800F15803DBB2162B06D8084ABDE82A
:102CE000104032F8130005F027B8EC2805D903F09E
:102CF000CDF8BDE8104003F09DB910BD1C0E0020BA
:102D0000EEB4000808B5002858D082280FD104F08E
:102D1000AFFF810752D5392000F0B4FE00F086FFE6
:102D2000392000F0B7FEBDE8084000F07FBF8328DF
:102D30000AD104F09DFFC20740D5532000F0A2FE47
:102D400000F074FF5320ECE784280AD104F090FFD0
:102D5000430733D5472000F095FE00F067FF47207A
:102D6000DFE7021FD2B2A02ADBD900F12002D2B2E3
:102D7000072A07D800F0070301209840C0B200F0EE
:102D8000F1FED0E700F15B02D2B2022A04D8BDE81E
:102D90000840002004F0C0BF00F15802D2B2162A49
:102DA00004D8BDE80840002004F0C6BFEC2805D9CF
:102DB00003F0CAF8BDE8084003F03CB908BD38B5D7
:102DC00005460C46FFF71AFF24B92846BDE83840EF
:102DD000FFF798BF0A20013C06F02BF9A4B2F3E7F5
:102DE00039280CBF50210021FFF7E9BF08B528B1F1
:102DF00000F0B0FEBDE8084000F018BF08BD08B5FF
:102E000028B100F0AFFEBDE8084000F00FBF08BDDC
:102E10002DE9F3478679857880460C4600F058FE08
:102E200036090746A0B12F4695B1C4F3072303F036
:102E3000F003402B04D004F12003DBB2072B1ED992
:102E4000022000F043FF00F043FE80F00100C7B213
:102E5000C4F30339B9F10F0F3FD8DFE819F01200BE
:102E6000120063006300AF00C6003E003E00D000C9
:102E70002C013C013C0191013E003E009A010027DB
:102E8000E6E7C4F30723C4F3032613F0F00F18BFDB
:102E90003601E4B295B156B104F12003DBB2072B41
:102EA000304600D93CB900F055FE00F0BFFE204688
:102EB000FFF7A4FE11E000F063FEF6E72046FFF7FF
:102EC00021FF56B104F12003DBB2072B304600D9B5
:102ED0002CBB00F047FE00F0A9FEA9F10809B9F1EA
:102EE000030F03D804F0C4FEFFF756FE002F00F0D6
:102EF000578100F0E5FD10F0010040F0518188F8A5
:102F0000020000F0D5FD00F037FA404600F05EF90F
:102F100000F0CEFD02B0BDE8F04700F037BA00F097
:102F200037FED8E7C4F3072303F0F003C4F3032A02
:102F3000202BE4B218BF4FEA0A1A64B1012C28D042
:102F40007DB34EB398F80630D907B0D56FF30713A9
:102F500088F8063020E095B13EB900F03DFE40EA29
:102F60000A00C0B2FFF742FFB7E7012EF5D100F02B
:102F700033FE40EA0A00C0B200F03AFEADE72EB9D7
:102F800000F048FE5046FFF73AFFA6E7012EA4D016
:102F9000F6E71DB1052EA0D85046E3E7042E9CD8D5
:102FA000F0E7002EEED0392C0CBF4FF44870012012
:102FB00006F03FF82046FFF7A5FE8EE714F4406FB9
:102FC000C4F3812307D0012B87D165B1C4F3090075
:102FD00004F0B2FE81E725B1C4F3090004F09CFEC1
:102FE0007BE72846FAE72846F2E7E0B225B102F08F
:102FF0004DFF03F01FF870E702F0A6FFF9E714F4A5
:10300000407F27D1002D7FF468AFC4F34210E20661
:103010004FEA800048BF0F25C0B248BF854004F08A
:103020000F03C4F3812448BFED438340022C45EADB
:10303000030009D0032C0AD0012C02D000F062F961
:103040004BE700F057F948E700F064F945E700F076
:103050004EF942E7C4F3012215B302F00103002B3D
:103060003FF43BAFC4F342108000C2B204F00F0043
:1030700000FA02F114F010001CBF0F2303FA02F053
:10308000C4F3812414BFC3430346022C43EA010066
:103090000BD0032C0CD0012C04D000F095F91CE7C8
:1030A0005308DCE700F088F917E700F095F914E71A
:1030B00000F03EF911E7E6B2C4F3032425B120463F
:1030C00000F05AF930464DE73046FFF798FE2046AB
:1030D00000F05CF901E75FFA84FAAAF1F003042B2F
:1030E00039D8DFE803F0030E151A23003DB1042E92
:1030F0003FF6F3AEC4F3042000F054F9EDE6052EDC
:10310000F6E7C4F30420002DE2D000F035F9E4E640
:10311000C4F30420002DF8D0DAE725B1C4F304206D
:1031200000F024F9D9E600F00FF9D6E64DB1C4F36A
:103130000420019000F020F90198032100F0A2FD85
:10314000CBE6012000F0C2FD012E7FF6C6AE0220C4
:1031500000F0BCFDC1E62DB10EB15046A8E6C4F3A7
:103160000420D2E74EB1BAF1390F0CBF4FF44870CA
:10317000012005F05EFF50461DE7C4F30420A7E7D9
:10318000C4F30322E1B2404600F056FF00F0C2F95A
:10319000A3E6C4F30322E1B2404600F04FFF9CE6F1
:1031A00002B0BDE8F08713B501880446807800F0CE
:1031B0008DF90146019100F017F900F097F8019997
:1031C000204602B0BDE81040FFF722BE13B5838849
:1031D0000288ADF804200446CBB1BDF804204FF6B8
:1031E000FF739A4213D0FFF755FC50B900F070FC02
:1031F00068B1A3785BB1022002B0BDE8104000F0D6
:1032000065BD2046FFF7CFFF2046FFF7CFFB02B09A
:1032100010BD08B5002004F07FFD002004F08CFDF7
:1032200000F0BEFC00F0D2FC00F000FD03F038F826
:10323000BDE8084002F0FEBE08B500F033FCBDE872
:103240000840FFF7E6BF08B500F094FCBDE8084071
:10325000FFF7F2BFC0F30332023AC3B20D2A1CD803
:10326000DFE802F007071B1B141B1B1B0707181BBB
:103270001B18F02B13D004D8E72B8CBF00200120A3
:103280007047F42B14BF002001207047E72B06D9AC
:10329000F12BF7E7C0F3C0207047002070470120F2
:1032A000704708B5008800F005F9BDE80840FFF751
:1032B000D1BF82B002AB03E9030002B0704782B015
:1032C00002AB03E9030002B07047704708B5FFF78F
:1032D000FCFF08BD08B5FFF7F9FF034B1860BDE818
:1032E0000840FFF796BF00BFA01200207047FFF70D
:1032F000F1BF0000024B1B681843FFF7EBBF00BF94
:10330000A0120020024B1B681840FFF7E3BF00BF6C
:10331000A0120020024B1B685840FFF7DBBF00BF24
:10332000A0120020704708B5FFF7FCFF08BD0000A1
:1033300008B5FFF7F8FF034B1860BDE80840FFF73A
:1033400068BF00BFA41200200020FFF7F1BF0000FB
:10335000054B1B681BB9B0FA80F04009704723FA8F
:1033600000F000F001007047A4120020012303FACE
:1033700000F0FFF7DDBF0000012303FA00F0024B6D
:103380001B681843FFF7D4BFA4120020012303FADF
:1033900000F0034B1B6823EA0000FFF7C9BF00BF22
:1033A000A4120020012303FA00F0024B1B685840CE
:1033B000FFF7BEBFA4120020024B1B681843FFF7A3
:1033C000B7BF00BFA4120020024B1B681840FFF7D4
:1033D000AFBF00BFA4120020024B1B685840FFF78C
:1033E000A7BF00BFA412002070470000C0F307234E
:1033F00003EB430337B500EB430000F00703012262
:103400009A40C0F3C4000A4B00EB8000D2B21844CB
:103410000024057821FA04F343F300036B401340C2
:1034200001346B40052C00F8013BF2D103B030BDF4
:10343000A8120020C0F3072303EB430313B500EBEE
:1034400043000B4900F00704C0F3C40000EB800008
:1034500000220144104611F8013BE34003F0010350
:10346000934001321843052AC0B2F4D102B010BD16
:10347000A81200200D4B73B51E680D4BADF804006B
:103480001B681F241E4326FA04F3DB07E5B205D4AC
:10349000013CF8D20025284602B070BD01992846AB
:1034A00000F0B4FE80B20128F2D0F4E7A4120020AC
:1034B000A012002007B5ADF804000198FFF7DAFF6D
:1034C000019903B05DF804EB00F0A0BE13B5104BFA
:1034D000ADF804101B782BB1019802B0BDE8104084
:1034E000FFF7E8BF70B10198FFF7C4FF044601463B
:1034F0000198FFF77BFF0199204602B0BDE810401C
:1035000000F084BE0198FFF795FF0446F3E700BF83
:103510009D120020F8B5034660B1002501261C4627
:1035200014F8010B74283FD00BD802282DD002D8F4
:10353000012812D0F8BD031F6F2BFBD8FFF75EFBED
:103540001AE075283AD000F17C03DBB26F2BF1D87A
:1035500000F07F00FFF7D6FB0EE09C1C5B7803F1C8
:103560002002D2B2072A0ED803F007039840C0B257
:1035700000F01CFB00F05AFB2F46013FFFB2FF2F6B
:103580001FD12346CBE71846D8E758789C1C00F19A
:103590002003DBB2072BDDD800F0070006FA00F0AD
:1035A000C0B200F00BFBE5E75F789C1C013FFFB267
:1035B000FF2FE1D00A2005F03CFDF7E75D789C1C69
:1035C000DAE70A2005F035FDD7E7000070B5094BB2
:1035D000094E1C78094D3378A34200D170BD05EB2C
:1035E000C40355F8340059680134FFF768FE04F04D
:1035F0000704F0E71913002018130020D812002048
:10360000024B18685968FFF75ABE00BFD01200205D
:10361000214BF7B59A7912F0F00F0AD19A7842B19E
:103620001E4A1F4E12781F4D4FF6FF773178914298
:1036300001D103B0F0BD98881988ADF8041038B3F3
:1036400089B2B94224D005EBC20493F801C0617875
:103650008C451DD193F800C015F832108C4517D158
:10366000A178A9B9A188091A89B2C72910D899796E
:103670000948012262F307119971A37962F30713D4
:10368000A371FFF7A3FD03B0BDE8F040FFF79EBFB5
:10369000013202F00702C9E7D012002019130020FE
:1036A00018130020D81200202DE9FF47BA4F044616
:1036B000BB880068009038882178627894F802808E
:1036C000B4F804A0ADF80800EC463D46002B00F02D
:1036D000C28080B24FF6FF7E704500F0BC80BE789D
:1036E000002E00F0B880AAEB0303B8799BB2C72B79
:1036F00000F0F00900F286803B88ADF80830B9F19F
:10370000000F47D17345C14617D0B4F800C09C459F
:1037100013D1B8F1000F40F00581012363F30710C6
:10372000B871FFF76DFF3846FFF750FDBB79A37105
:103730000026304604B0BDE8F087BAF1000F40F033
:10374000F580B8F1000FF3D0AB7943F00103AB7112
:10375000EEE700EBC30595F801C0944506D110F8DB
:1037600033C08C4502D1AD78002DE1D1013303F097
:103770000703EFE010F4706F02D0002B00F0098116
:103780002033DBB2072B40F204812046FFF71EFDF9
:10379000B146FEE0734510D022889A420DD1B8F1AF
:1037A000000F0AD1A0712046FFF710FD23683B608F
:1037B00063687B60FFF724FFBBE72046FFF771FDDE
:1037C000E0B1B8F1000F19D0AB791F2B0CD92A88C2
:1037D000ADF8082002A800228DF80A20ADF80CA050
:1037E0008DF80E30FFF7F2FC23682B6063686B6086
:1037F000FFF70EFFFFF704FF01269AE72046FFF7C9
:10380000E5FCF9E7B9F1000F15D18DF801208DF82D
:103810000280ADF804A08DF800109CE80300FFF7CB
:1038200048FD3846FFF7D2FCC7F80090C7F804906F
:10383000FFF7E6FEADE022883B889A42BDD1B8F1A1
:10384000000FBAD1A0712046FFF7C0FCC7F8008076
:10385000C7F804806DE72888ADF80800002B4CD02D
:1038600086B24FF6FF70864247D0AE78002E44D124
:10387000AAEB03039BB2C72B30D84646002EBDD01F
:1038800022882B889A421CD1AB79DA0714D413F022
:10389000F00211D0F02AA37106D0DBB2C3F30312F9
:1038A000013262F30713A3712046FFF78FFC2368F0
:1038B0002B6063686B607DE723682B6063686B60D7
:1038C00037E72046FFF7EDFC00288DD1AB79204685
:1038D00043F00103AB71FFF779FC2AE78DF8028012
:1038E000ADF804A08DF800108DF801209CE80300CD
:1038F000FFF7DFFC2E606E605CE7B8F1000F3FF46D
:103900007DAF2046FFF7CDFC064600283FF476AF9A
:1039100023682B60636820486B60FFF76BF9FFF743
:1039200077FE47E7BAF1000F3FF40EAF8DF80810AD
:103930008DF80920BDF808004FF6FF7398423FF458
:1039400000AFB8F1000F7FF4FFAE1448144B0778B6
:103950001B781448BB427FF4FCAE8DF801208DF833
:1039600000100098FFF7A6FDC0F30332012AC3B28E
:103970007FF600AF0E3202F00F02012A3FF605AFCC
:1039800010F4706F3FF4FCAEA27912F0F00F7FF4E8
:10399000F7AE4E46CDE600BFD0120020181300202F
:1039A00019130020D8120020F0B587B06D4685E8C5
:1039B00003002846FFF778FE2E4F2F4E044688B1AD
:1039C000BDF80430BDF80020ADF8102043B192B22C
:1039D0004FF6FF739A4203D095E80300FFF76FFCA0
:1039E000264C41E095E8030004AB83E80300BDF8F2
:1039F0000410BDF81020ADF80C200029F0D01FFAFB
:103A000082FC4FF6FF7294453D783078E8D06A1C0E
:103A100002F0070282420DD0184CADF8141003CB0F
:103A200004EBC50C44F835003A70CCF80410FFF7ED
:103A3000CDFDD5E7FFF707FC114B3C7034701C60DF
:103A40005C60CDE704EBC000FFF72EFE80B1337859
:103A500004EBC30254F833005168FFF730FC3378AD
:103A6000013303F00703337030783B788342E9D1A8
:103A700007B0F0BD1813002019130020D812002041
:103A8000D0120020024B0146186804F007BA00BFAC
:103A90001C0E0020024B0146186804F019BA00BF42
:103AA0001C0E0020014B186804F02CBA1C0E0020DC
:103AB000024B93F90000C0F3C70070473B1300208E
:103AC000024B187800F00700704700BF3B1300203E
:103AD000034B187810F0070018BF0120704700BF93
:103AE0003B1300200C4A5378C3F38001814210B588
:103AF00004460FD060F382035370108800F02EF953
:103B0000064B1B78DB0705D521460548BDE810406C
:103B100000F0D8BF10BD00BFE42C002057130020D8
:103B20001CB50008044B5878C0F3800080F00100F9
:103B300000F00100FFF7D6BFE42C00200120FFF7C2
:103B4000D1BF0020FFF7CEBF014B1878704700BFF0
:103B50003D130020024B1A7810431870704700BFC5
:103B60003D130020024A137823EA000010707047CA
:103B70003D130020014B00221A7070473D130020B6
:103B8000024B1A7810431870704700BF3E13002094
:103B9000024A137823EA0000107070473E13002099
:103BA000014B00221A7070473E130020024B1A7816
:103BB00010431870704700BF3A130020024A137870
:103BC00023EA0000107070473A130020014B0022D6
:103BD0001A7070473A130020014B1878704700BFE5
:103BE0003C130020704708B5FFF7FCFF08BD00003C
:103BF000064A5278520708B506D4054A1178814220
:103C000002D01070FFF7EFFF08BD00BFE42C0020CA
:103C10003C13002008B5044B1A781AB10020187024
:103C2000FFF7E1FF08BD00BF3C13002010B50D4BAE
:103C30000D491B7809780D4C0B430D492068097814
:103C40000B430C490370097831B10B43037004F046
:103C500083F808B1FFF7DEFF2068BDE8104004F0EC
:103C60000FB800BF3D1300203E1300201C0E0020A3
:103C70003A1300203C130020704708B5FFF7FCFF03
:103C800008BD00000A4A5278520710B50CD4094CFE
:103C900041EAC0012170FFF76FFB94F90000C0F307
:103CA000C700FFF7EAFF10BDBDE81040FFF764BB97
:103CB000E42C00203B13002008B5034B00201870B3
:103CC000FFF7DBFF08BD00BF3B13002008B50C4A1F
:103CD00092F9003023EA000040B21070420702D18E
:103CE000DBB2834203D1074B5B785B0707D5C0F398
:103CF000C700FFF74BFBBDE80840FFF7DDBF08BD7D
:103D00003B130020E42C002008B502F0F5FBBDE8D1
:103D100008404FF6FF71002002F07DBC08B500207E
:103D200002F076FC4FF6E963C31A5842584108BDC9
:103D3000022002F067BC032002F064BC01460320AD
:103D400002F063BC10B5042002F05CFC04462220A3
:103D500002F058FC44EA002080B210BD10B5C1B298
:103D60000446042002F051FC210A2220BDE8104044
:103D700002F04BBC072002F045BC0146072002F0D0
:103D800044BC01460F2002F08CBC0146132002F017
:103D900088BC0020FFF7F9BF08B50020FFF7F1FF4E
:103DA000FFF7F7FF08BD000010B502F0A5FB4FF6C6
:103DB000E961002002F02FFC0021022002F025FC26
:103DC00000210320002402F020FC1A4B214604208D
:103DD0001C6002F01AFC2146222002F016FC21464B
:103DE000052002F012FC2146062002F00EFCFF2105
:103DF000072002F00AFC2146082002F052FC21466E
:103E00000D2002F002FC2146182002F04AFC214657
:103E1000172002F0FAFB21461C2002F042FC21464A
:103E2000202002F0F8FB2146182002F03AFCFFF7B0
:103E3000B3FF10BDA0120020FFF7B6BF01460E2051
:103E400002F0E3BB08B504F0D5F8024B1860024B52
:103E5000186008BD441300204813002008B504F082
:103E6000C9F8024B1860024B186008BD44130020CB
:103E7000401300207047704708B5FFF7FCFF08BDEE
:103E8000704708B5FFF7FCFF08BD000008B50548FE
:103E900000F0A0FA02F0E6FAFFF7ECFFFFF7ECFF04
:103EA00008BD00BFD18600080120704708B5FFF7A4
:103EB000FBFF08BD7047704708B5FFF7FBFFFFF732
:103EC000FAFF08BD08B504F093F8FEF72DFA03F0E9
:103ED000DDF903F017FC03F0BFFCFFF7D2FF08BDCC
:103EE00038B50E4D2B780446580711D5D9070FD594
:103EF0000B4800F0E7FD2B78DA0709D50948214681
:103F000000F0E0FD2B78DB0702D5074800F0DAFD72
:103F10002046BDE83840FEF73FBE00BF57130020E3
:103F200031B5000844B50008F3C200082DE9F74F89
:103F3000FEF77CFA08B1FFF785FF0026DFF8F48072
:103F400034465FFA86FA5046FEF746FB18F8015BE6
:103F5000854207463BD0354B1B789B0701D5FEF7C2
:103F600041FB7D40EDB24FF0000B4FF0010915EA27
:103F7000090F21D0FFF79AFFA0B117EA090F14BF6C
:103F8000012100218DF802108DF800B08DF801A0FC
:103F900004F05EF840F00100ADF804009DE8030075
:103FA000FEF702FE18F8011C0134E4B289EA0101AF
:103FB000032C08F8011C1FD80BF101025FFA82FBE9
:103FC0004FEA4903BBF1060F5FFA83F9CFD10136FF
:103FD0000A2EB6D184B94FF6FF73ADF800308DF8D4
:103FE000024004F035F840F00100ADF8040002ABE7
:103FF00013E90300FEF7D8FD03F0DEF903F0A0FBA0
:1040000008B1FFF72BFF0A4C02F088F803F030FEEE
:104010002378834207D003F02BFE207003B0BDE865
:10402000F04FFFF75DBF03B0BDE8F08F57130020DE
:104030004C1300204D1300200020704770470000F3
:104040003C225043C1F30723062202FB030353FA29
:1040500081F1034B33F8110082B002B0704700BF0A
:10406000EAB20008014B33F81000704778B5000839
:1040700010B500F0D7F8B0F5A04F04462FD2B0F538
:10408000804F80F08980E72816D8DF280AD8A72833
:104090000AD8A42869D8012804D0031F9BB2A12BF9
:1040A00028BF0024204610BDBE2864D9C03880B285
:1040B0001F286AD90024F5E7B0F5405F09D2B0F5B2
:1040C000005F60D2FF2854D8EC28F3D940F4A04018
:1040D00024E00205C3B25CD443F44044E2E7B0F507
:1040E000AA4F1DD2B0F5A84FC3B275D2B0F5A64FF6
:1040F0000AD2B0F5A44F64D2B0F5A24F51D34AF220
:10410000F10040EA0324CDE79C08012003F00303FB
:1041100000FA03F343EA441040F40A4084B2C1E7D2
:10412000B0F5B44F0FD2B0F5B24F61D2B0F5AC4F8D
:1041300055D3A0F5B0439BB2FF2BBBD84AF2F00099
:1041400040EA0420EAE7A0F5C0439BB2B3F5005F64
:10415000B0D2C0F3042000F0E5F8000200F4F853F8
:10416000E4B21C4344F400549CE7A0F1240444F45A
:104170008044A4B296E75834E4B2234B33F81400D9
:1041800040F488448EE7C0F30B00FFF76BFF044652
:1041900088E743F4484485E7C0F30B0040F420442B
:1041A00080E7C3F38104C0F30110640144EA0024F2
:1041B00003F00303012000FA03F31C4344F40C4012
:1041C000ACE79C08012003F0030300FA03F343EA81
:1041D000441040F40C40A1E74AF2F40091E7C0B269
:1041E00000F0A0F8000200F4F85040F4005459E741
:1041F00000F00F0000F096F8C4F3031440EA042026
:1042000040F410408AE700BF4AB5000807B5ADF892
:1042100004100199FFF714FF03B05DF804EBFFF7FA
:1042200027BF0000E7284DD8DF2807D8312861D004
:104230000ED8292857D02A2863D07047A0F1E00370
:10424000072B3FD8DFE803F0123E2126303E3A3FED
:10425000392804D0822802D035283DD07047304B11
:104260001B7813F0030F18BFE02070472C4A137817
:10427000D9074DD4527812F0010F23D013F0100F4C
:1042800008BFE32018BF00207047254B1B7813F0B0
:10429000040FF2E7224A137859073BD45278D20729
:1042A0003AD413F0100FEDE71D4B5A78910709D55A
:1042B0001B7813F0100F08BFE720E3E7184B1B78BB
:1042C0001A07F6D47047164A1378190726D452787D
:1042D0009207E6D5E420F5E7114B1B7813F0200F89
:1042E00018BF292070470E4B1B7813F0200F18BF02
:1042F000352070470A4B1B7813F0400F18BF2A2057
:104300007047074B1B7813F0400F18BF31207047E0
:1043100039207047E2207047E0207047E620704760
:10432000E42C0020294B1A78510707D500F018011A
:10433000082927D100F0F70040F00400110707D545
:1043400000F01801182926D100F0E70040F0140011
:104350005B78D90707D500F01801082924D100F0AF
:10436000F70040F00100990707D500F01803182B5B
:1043700023D100F0E70040F01100D30648BF00F061
:10438000E700704700F01401042904BF00F0FB00AF
:1043900040F00800D2E700F01401142904BF00F037
:1043A000EB0040F01800D3E700F01101012904BF31
:1043B00000F0FE0040F00800D5E700F01103112BDB
:1043C00004BF00F0EE0040F01800D6E7E42C002017
:1043D00000207047014B1860704700BF200E00207E
:1043E000014B1B68184700BF200E0020FFF78CBC54
:1043F00008B5FEF71BF8642004F01BFEFEF716F864
:104400000020FEF7E9F8C30705D5FFF7EFFFBDE889
:10441000084003F029BE08BD08B5FFF7E9FF08BD55
:1044200008B5FFF77BFC08B9FFF706FDFFF780FC36
:10443000084B1870FFF786FC074B1880FFF7ECFF5E
:10444000FFF779FCFEF753FF044B1868BDE80840FE
:10445000FEF769BF57130020E42C0020A4120020AF
:1044600008B503F067FD04F073F904F073F904F084
:1044700091F9FFF721FDFAE770472DE9F04F8BB076
:104480001646149C9DF85480169FDDE9185281460B
:104490000CB922F0100212F48060009000D00CB32E
:1044A00012F0200FA4460DF1080A4FF0000414BFCB
:1044B0004FF0370B4FF0570BBCFBF7FE07FB1ECE40
:1044C0005FFA8EF0BEF1090F94BF30305844C0B28D
:1044D000BC450AF8010BBCFBF7F004F1010401D361
:1044E000202C12D112F0020B23D102F0010E4DB19B
:1044F000BEF1000F06D0B8F1000F02D112F00C0F80
:1045000000D0013D4FF0300C05E08446D4E702A80E
:1045100000F804C001341798A04201D9202CF6D12C
:104520004FF0300CBEF1000F03D0A54201D91F2C73
:104530004AD9D00620D5009800284BD1002C49D06C
:104540001798A04201D0AC4244D1601E41D0102F38
:104550004AD1023C900649D41F2C18D80AA82044FE
:10456000782700F8207C01341F2C10D80AA820449A
:10457000302700F8207C01341F2C08D8B8F1000F38
:104580003AD00AA820442D2700F8207C0134920755
:104590004FD03746A24604EB0708A8EB0A02BAF14F
:1045A000000F4AD1BBF1000F0AD0A8EB0604274642
:1045B000AF4206EB07024BD32E44A54228BFB046BC
:1045C00040460BB0BDE8F08F02A800F804C00134EB
:1045D000A8E70446102FBDD0022FC5D11F2CD6D876
:1045E0000AA820446227BCE70446F5E71F2CCED872
:1045F0000AA820445827B4E7570703D50AA820443F
:104600002B27C1E71007C2D50AA820442027BBE703
:104610002020CDE90013C847DDE900130137BD4272
:1046200008EB0702F4D82F1BA54238BF00273744F8
:10463000B0E72746A6EB0408F1E70AF1FF3A02A823
:10464000CDE9001310F80A00C847DDE90013A2E71E
:104650002020CDE900130137C847DDE90013A7E7A3
:1046600008B1FFF7BDBE70472DE9F04F8FB00029AC
:104670001F46189EB74B18BF034691460793002567
:10468000387860B94D45079C2CBF09F1FF322A46A6
:104690004B460020A04728460FB0BDE8F08F2528E4
:1046A00007F1010707D06C1C2A464B46079D08916D
:1046B000A847254624E1002306E02D2A15D0302AFC
:1046C0000CD143F001030746384610F8012B2B2A82
:1046D0000ED0F2D8202A0ED0232A0FD0A2F1300417
:1046E000092C29D84FF0000811E043F00203EAE753
:1046F00043F00403E7E743F00803E4E743F0100363
:10470000E1E70A2404FB0828A8F1300807463846E8
:1047100010F8012BA2F13004092CF2D93A782E2A94
:104720004CD17878A0F13004092C07F1010243F450
:1047300080633AD8002414E02A2A0AD156F8048B60
:10474000B8F1000FBCBF43F00203C8F100080746F0
:10475000E4E74FF00008E1E70A2202FB0404303CE2
:104760003A46174617F8010BA0F1300CBCF1090FBF
:10477000F2D917463A4612F8010B6C2825D01FD8FB
:10478000682829D06A2830D03A46174617F8010B16
:10479000782888D861282BD8252884D0582882D119
:1047A00043F020034FF0100C6AE02A2805D156F898
:1047B000044B023724EAE474DCE717460024D9E707
:1047C0007A28E1D143F48073DFE778786C28F9D157
:1047D00043F44073BA1CD8E77878682802D043F0D5
:1047E0008003D2E743F0C003F4E743F40073CCE75F
:1047F000A0F16202162A3FF656AF0FF2080C5CF8E1
:1048000022F000BF614800082549000861480008FF
:10481000A7460008A7460008A7460008A7460008C4
:1048200061480008A7460008A7460008A7460008F8
:10483000A7460008A7460008614800088F4A0008FC
:10484000A7460008A7460008B9490008A74600087F
:1048500061480008A7460008A7460008614800080C
:1048600078289FD06F2800F02781622800F02781E8
:10487000692823F010034FF00A0C03D0642801D0FC
:1048800023F00C035A0548BF23F00103692803F401
:10489000007201D064281DD1002A7FF4F1AEDA0540
:1048A00006F1040A0CD53268CDE902C4CDE90483CF
:1048B000002A4FEAD2730193B8BF5242009217E028
:1048C00013F0400F326801D0D2B2EDE71E0648BFA8
:1048D00012B2E9E7002A7FF4D3AED80506F1040A44
:1048E00010D5CDE90483CDE902C401923368009369
:1048F0002A46079808914B46FFF7BFFD56460546E6
:104900000899BDE613F0400F326807D0D2B2CDE966
:1049100004830023CDE902C40193CFE7180648BF02
:1049200092B2F4E713F0020308932ED04FF0010A7D
:1049300056F8040B09914B46079C2A46C0B2A04783
:10494000DDE9083105F1010B002B33D054465A46FE
:1049500028E000BF794400080991079C4B462020BD
:10496000A04709990AEB05020AF1010AC245F3D3EF
:10497000B8F1000F08F1FF3308BF002308F1010A66
:104980001D4408BF4FF0020AD2E7DDF820A0E9E796
:10499000531C08930991079D4B462020A847DDE949
:1049A000082101344445F3D3A8EB0A03D04538BFAE
:1049B00000239B445D4663E63246002C52F804AB6C
:1049C000089214BF22464FF0FF325244D3469BF860
:1049D000000008B15A4511D113F48062ABEB0A0B09
:1049E000099202D0A34528BFA34613F002030A93FD
:1049F0001DD1ABEB05032A460B930BE00BF1010B2A
:104A0000E5E7531C0C930D91079E4B462020B047C1
:104A1000DDE90C210B9B13444345F2D3A8EB0B03B8
:104A2000D84538BF00230BF1010B1D449B4456466B
:104A3000A5EB0A0A06E01C462A460B91079D4B4649
:104A4000A8470B990AEB060516F8010B28B1099B3C
:104A5000002BF1D0631E002CEDD10A9BABB12A468E
:104A6000ABEB050A07E00991079C4B462020561C3A
:104A7000A0470999324602EB0A039845F3D8A8EB00
:104A80000B03D84538BF00231D44089EF8E543F0CA
:104A9000210305930823CDE9034310220023CDE928
:104AA000013256F8043B00932A46079808914B467A
:104AB000FFF7E3FC054623E74FF0080CE0E64FF074
:104AC000020CDDE60FB41FB506AA02A952F8043B9A
:104AD0000392009204484FF0FF32FFF7C5FD05B086
:104AE0005DF804EB04B07047614600081FB50A4B3F
:104AF0000A4A1B7802930A4B0A491B7801930A4B16
:104B00000A481B7800930A4B12781B780978FFF744
:104B1000D9FF05B05DF804FB6E100020681000207E
:104B20006D100020671000206A10002078B5000882
:104B300069100020292810B5604C55D029D81328B9
:104B40005FD015D8072800F093800B2834D05C483C
:104B5000A1E00A215B4B1B68002BF8D01A780A44AD
:104B6000FF2A40F3A380FF221A701978564858E0B4
:104B7000142839D0A0F11E03092BE8D81D38C0B283
:104B80002070013805286DD8DFE800F0414E545AF6
:104B90006066382810D04F38C3B2032BD7D803280B
:104BA000D5D801A353F820F0534B00089D4C0008C2
:104BB000A34C0008A94C00084448FFF783FFFFF707
:104BC00095FF434801220521FFF77CFF217800294A
:104BD00070D0404B40481A68404B002A08BF1A4624
:104BE000FFF770FF012010BD3D48FFF76BFF2078F5
:104BF00000230028F7D0334A23701360354A13602E
:104C0000E4E73848FFF75EFFFFF770FFDEE72D4B64
:104C1000354A1A602F4B354A1A6021780029D5D0C1
:104C20003348FFF74FFFD1E7264B324A1A60294B32
:104C3000314AF1E7234B314A1A60264B304AEBE701
:104C4000204B304A1A60234B2F4AE5E71D4B2F4A71
:104C50001A60204B2E4ADFE71A4B2E4A1A601D4B72
:104C60002D4AD9E7002316482370FFF72BFFD4E71E
:104C70001D4B2A481E221A701E4B32221A701F4BDF
:104C80000A221A701F4B14221A70204B08221A7025
:104C9000204B28221A70FFF715FF97E76FF00901E4
:104CA00058E74FF0FF3155E7012153E7002AB8BF1D
:104CB000002259E71A48FFF705FF93E76013002029
:104CC0003FB7000864130020C2C20008F9B500080D
:104CD00009B600085C1300204CB70008F5B50008C1
:104CE000D5B60008D8B6000867100020E6B6000860
:104CF0008DC2000868100020EFB60008691000207F
:104D0000FBB600086A10002008B700086D100020EC
:104D100017B700086E1000202AB7000842B7000835
:104D200055B7000810B5014604460548FFF7CAFE0E
:104D30000120A040FEF7DBFABDE81040FEF783BA81
:104D400059B7000810B5431F8CB03E2B00F21481F8
:104D5000DFE813F09300830099003F001201120175
:104D60007F0012011201C2001201D100F9001201EC
:104D7000120112011201E20012011201E0001201FF
:104D8000AE001201120110011001100110011001FA
:104D900010011001100110010901120193007900A6
:104DA000120112011201120112011201120112016B
:104DB000120112010901120112017F0012010D01FD
:104DC0000D010D010D010D010D010D010D010D0173
:104DD0000901FEF7B0FF01466A48FFF773FEFEF7D0
:104DE000A7FFC0F3C0030193C0F38003014600F0A6
:104DF00001020093C0F340036348FFF763FEFEF730
:104E0000A1FFC0F3C0130793C0F380130693C0F350
:104E100040130593C0F300130493C0F3C00303933E
:104E2000C0F380030293C0F340230193C0F3002337
:104E30000146009300F00102C0F340035348FFF71E
:104E400041FE012017E05248FFF73CFEFEF7F4FF59
:104E5000F7E75048FFF736FEF3E74F4A4F4813781D
:104E600023F00F031370FFF72DFE4D48FFF72AFEC6
:104E70004C4B012018700CB010BD4B48FFF722FEC0
:104E8000FDF7E8FDDDE7444C2378C3F3000282F030
:104E9000010262F300032370DB0701D54348D9E721
:104EA0004348FFF70FFE237823F00E032370C8E773
:104EB000394C2378C3F3400282F0010262F34103CC
:104EC0009807237006D53B48FFF7FCFD237843F095
:104ED0000103EBE73848BDE72F4C2378C3F380028A
:104EE00082F0010262F382035907237001D533482F
:104EF000EAE73348AEE7284C2378C3F3C00282F0D8
:104F0000010262F3C3031A07237001D52D48DBE7C2
:104F10002D489FE72D489DE702F0AAFE2C4B0B90F1
:104F20001A782C4B2C481B780A920993047803F0CA
:104F300061F8E409CDE90040DDE909320B99274821
:104F4000FFF7C0FD7DE7FEF77EF923490B78C3F339
:104F5000C01282F0010262F3C7130B701B064CBF34
:104F60001F48204876E70020FFF7DCFE69E7393864
:104F7000C0B2F9E71D38FBE71B48FFF7A3FD00208F
:104F800079E700BF5EB700087BB70008C4B7000828
:104F9000A9B80008BAB80008571300206CBA000876
:104FA00093BA00085813002097BA0008B3BA000853
:104FB000BFBA0008CCBA0008D9BA0008E7BA00089E
:104FC000F6BA000806BB000812BB00081FBB0008A9
:104FD00038120020042C0020E42C0020F9BB00082B
:104FE0007DBC000887BC0008F7B5000800207047AA
:104FF00000207047F8B5284E3478012C0546374616
:1050000014D0022C42D0002C43D1FEF79DFD222863
:105010000AD12846FFF7EAFF18B92846FFF792FEA3
:1050200000E0012000F001042046F8BDFEF78CFDF1
:105030002228284605D1FFF7D9FF0028EDD02046C9
:10504000F0E7FFF7D5FF0028EED1142D15D008D8D2
:105050000B2D0AD0102D13D01048FFF733FD00247C
:10506000E2E7292D09D0382DF6D10D48FFF72AFDAA
:105070000C48FFF727FD0124D6E700243C70D3E756
:10508000022338203370FFF755FDCDE7FFF752FDBF
:10509000F1E700243470C7E758130020F7B5000883
:1050A0006CBA000893BA0008453807EE900AF8EE8B
:1050B000E77AB2EE087AC7EE877A08B517EE900A5B
:1050C000FCF714FB9FED080B41EC110BFBF764F9A7
:1050D000074B51EC100B0022FCF760FBFCF70EFEB7
:1050E00000EE100A08BD00BF0000000000000040F4
:1050F00000807B4008B545F61D43984205D18B786A
:1051000073B300F039FA002008BD45F61E439842FB
:1051100004D18B7823B300F045FAF4E745F61F433A
:10512000984206D18B78DBB100F030F80028F2D13C
:10513000E7E745F62A43984209D18B7883B100F01E
:105140007DFC08480022042100F092F8DBE745F6D8
:105150002B43984204D18B7813B100F075FCF0E733
:105160000120D1E7240E002008B5FFF79DFFBDE820
:10517000084000F0FDB908B5FFF796FFBDE808400C
:1051800000F016B900F00AB870470000024B18781A
:1051900000F00100704700BF602D002038B50D4DB4
:1051A0002C78B4B90C4B1C7000F0FCFB0B4B0C4979
:1051B0001C700C4B1C700C4B1C800C4B2246013499
:1051C000082C1A8059601A8103F10C03F7D10123CE
:1051D0002B7038BD440E002068130020711300208E
:1051E000000080BF721300206E130020002D0020ED
:1051F0000B4B1B7883420FD95A1E101A094A43B22F
:105200000C2101FB032393ED010AB5EEC00AF1EE78
:1052100010FA01D900F01EBC9FED030A704700BFD1
:1052200068130020002D0020000000000D4B07EE49
:10523000900A1B78F8EE676ADFED0B7A9B0166EE49
:10524000A76A07EE903AB8EEE77AC6EE877A9FED46
:10525000077A67EE877AFCEEE77A17EE903A98B213
:10526000704700BF680E00200000704200007A44C2
:10527000F8B5224B1B78DB0704460E46154603D4CF
:10528000BDE8F840FFF78ABF1D4B1B780BB900F053
:1052900061F81C4B1B780BB1FFF780FF1A4BD4ED64
:1052A000017A1A4F01221A70194A3C6000231370C8
:1052B000184A1680184AFCEEE77A1570174D2B80B5
:1052C00017EE903A98B2FFF7B1FF94ED000A00F0A4
:1052D000CBF802F0BDFE124B2A8818803B6803EB26
:1052E000C203D3ED017AFCEEE77A17EE903A98B25A
:1052F000FFF79CFF0B4B1880F8BD00BF602D00200E
:10530000691300207213002071130020FC2C002070
:1053100070130020E82C0020612D00206A1300206B
:105320006C1300206E13002008B5074B1B78DB07B9
:1053300004D5064800220421FFF79AFF02F088FEF8
:10534000034B188008BD00BF602D00206C0E0020AC
:105350006C13002010B5124C237803BBFEF7DEFC63
:1053600008B9FEF769FDFEF705FD0E4B0022187027
:105370000D4B0E4811460132082A198058601981D8
:1053800003F10C03F7D123781BB900F0C5FA012310
:105390002370FFF703FFBDE81040FFF7C5BF10BD46
:1053A00069130020602D0020002D0020000080BF28
:1053B000F8B5264DB5EEC00A2B78F1EE10FA2DEDBA
:1053C000028BB0EE408A48BFB1EE408A002B3AD043
:1053D0001F4B1B780BB9FFF7BDFF1E4B0724184668
:1053E000D3ED167AF4EE487AF1EE10FA26D10C21BC
:1053F0006143002243184252174959601A810F46EF
:105400001646072C0ED1154B01261E70144B1C7826
:10541000013CE4B21C70B4B900F0C4FA114B2C701A
:105420001E7010E003F10C0C9CE80700013483E8C7
:1054300007009E811F619E826346E2E7013C621C79
:10544000A3F10C03CCD1BDEC028BF8BD721300208C
:1054500069130020002D0020000080BF731300207E
:1054600068130020440E00202DE9F041384B1B78D2
:105470000746D8072DED028BB0EE408A50D5354B4C
:105480001B780BB9FFF766FF334DDFF8D0802B7820
:10549000B5EEC08AF1EE10FA48BFB1EE488A5E1E42
:1054A0000C22711C2FD10133DBB2082B4DD90823FC
:1054B0002B702A4B002603F10C0494E807000136F8
:1054C000072E83E807002346F5D1254A01231370F0
:1054D000244A13702B785C1E02F0BAFD0C23634340
:1054E00008EB030228F8030082ED018A178102F01D
:1054F000AFFD1D4C1D4B188023788BB100F07AFA5C
:10550000002323700CE002FB0684D4ED017AF4EE54
:10551000487AF1EE10FA16D12B78013B9E4203DB5C
:10552000BDEC028BBDE8F08104F10C0898E807009F
:1055300084E8070002F08CFD0136A08184ED048A26
:10554000A7824446E8E7013EABE72B70BDE700BF0A
:10555000602D00206913002068130020002D00201A
:105560007313002072130020440E002080130020CB
:105570004FF6FF70FFF778BF08B5084B187840F07A
:1055800001001870FEF7F9FBFFF7FEFDBDE80840CB
:10559000034800220221FFF76BBE00BF602D0020F0
:1055A000580E002008B5002202210948FFF760FECE
:1055B0004FF47A7003F03DFDFFF7F0FD054B1878CE
:1055C0006FF300001870BDE80840C0B2FEF7D5BB0D
:1055D000480E0020602D00202DE9F047634F644DF8
:1055E0003B7813B92C78002C72D002F031FD2E7864
:1055F0008046EEB900263B78002B00F0B5805D4B6D
:105600001C7824B95C4B1C78002C08BF34465B4DD9
:105610005B4F00264FF6FD783B78B34200F3928053
:10562000584A1378002B53D0002111701C464FE0CC
:10563000554C564D208802F010FD2B888342D9D856
:10564000208802F00AFDA4F80080514CB5F80090C3
:10565000B4F800A0A0EB09000AF1010323801FFAAF
:1056600080F902F0F5FC4B4B18804B4B19882388CE
:105670008B42A04605D3494B1C783CB30023A8F8C5
:105680000030474B47481A680478B8F8003086461F
:10569000DB0004BB02EBCA0CD4189CED007AD4EDFD
:1056A000007AB4EE677AF1EE10FA14D10123037098
:1056B0000220FFF7BBFD9FED3C0AFFF7D5FE02205D
:1056C000A8F800A0FFF7B2FD288094E7FFF766FD79
:1056D0002046BDE8F0871344D3ED017AFCEEE77A6B
:1056E000002017EE903A8EF8000098B2FFF79EFD6A
:1056F00001398145B8F8003001D999420EDC814565
:105700003ABFA0EB090084B2012402EBC30292ED80
:10571000000A2046FFF7A8FE2C806CE701339BB2FD
:10572000A8F8003002EBC303D3ED017AFCEEE77A70
:10573000A9EB000017EE903A1FFA80F998B2FFF734
:1057400075FDD6E72B89013B9BB2434509D82888D4
:1057500002F083FC2B89834203D895ED010AFFF701
:1057600027FE01360C3557E7344659E772130020FF
:10577000711300207D1300207C130020002D0020D9
:1057800068130020731300206C1300206E13002098
:105790006A13002080130020E82C0020612D0020D7
:1057A000FC2C0020701300200000000008B5084801
:1057B000084903F05BFF0648022103F069FFBDE8DA
:1057C0000840032210214FF0904004F03EBE00BF7D
:1057D000C82F00208C0E002008B5074803F066FF94
:1057E000012210214FF0904004F02FFE4FF0904323
:1057F00010221A8308BD00BFC82F002008B5114B26
:105800002DED028BB0EE408A83ED000AFFF7E4FF36
:10581000B5EEC08AF1EE10FA10D938EE088A9FED85
:105820000A0A0A4B28EE008ABCEEC88A83ED008A79
:10583000BDEC028BBDE80840FFF7B8BFBDEC028BA2
:1058400008BD00BF74130020000080438C0E0020B0
:1058500008B50848084903F009FF0648022103F08B
:1058600017FFBDE80840032220214FF0904004F0CC
:10587000ECBD00BFE82F00209C0E002008B50748B3
:1058800003F014FF012220214FF0904004F0DDFDD1
:105890004FF0904320221A8308BD00BFE82F00205C
:1058A00008B5114B2DED028BB0EE408A83ED000A56
:1058B000FFF7E4FFB5EEC08AF1EE10FA10D938EE2A
:1058C000088A9FED0A0A0A4B28EE008ABCEEC88AB5
:1058D00083ED008ABDEC028BBDE80840FFF7B8BF3E
:1058E000BDEC028B08BD00BF781300200000804390
:1058F0009C0E002008B5FFF76FFE58B10020FFF79F
:1059000077FCFFF77BFF0020FFF772FCBDE8084043
:10591000FFF7C6BF08BD000038B5184D184C03226C
:1059200010214FF0904004F090FD2846154903F0F7
:105930005FFE1549154803F099FE032220214FF020
:10594000904004F082FD2046114903F051FE1149B8
:10595000114803F08BFEAB6A10491A6810481368AF
:1059600023F002031360A36A1A68136823F4003358
:105970001360BDE8384003F079BE00BF342F00202B
:10598000642F002094C000088C0E0020C82F002037
:105990009CC000089C0E0020E82F0020AC0E0020C8
:1059A000D82F002008B50E4803F080FE0D4803F004
:1059B0003EFE40F2FF7200210A4803F027FE0A482B
:1059C00003F074FE094803F032FE084840F2FF720B
:1059D000002103F01BFEBDE80840054803F066BE49
:1059E000C82F0020342F0020E82F0020642F002033
:1059F000D82F002008B50A4A0A490B484FF4807393
:105A000003F006FE09490A480A4A4FF4807303F07E
:105A1000FFFDBDE808400848022103F039BE00BF81
:105A200092BC0008A4C00008342F0020B4C00008B5
:105A3000642F002092BE0008D82F0020014B0022C6
:105A40001A7070477E130020014B00221A707047B5
:105A50007E130020024B1B780BB9024A137070476B
:105A60007E1300207C130020024B1B780BB1FFF744
:105A700089BB70478313002008B5FFF7F5FF044B7F
:105A8000044800221A700821BDE80840FFF7F0BB67
:105A900083130020E00F0020034B0448002208215C
:105AA0001A70FFF7E5BB00BF82130020BC0E002078
:105AB00010B5FFF7D9FF084A08481378013303F0FF
:105AC00003031370282404FB03000022BDE81040E8
:105AD0000521FFF7CDBB00BF3C0F0020400F002089
